:0A0000001DC0FECFFDCFFCCFFBCFEB
:10000A00FACFF9CFF8CFF7CFF6CFF5CFF4CFF3CFBA
:10001A00F2CFF1CFF0CFEFCFEECFEDCFECCFEBCFEA
:10002A003F065B4F666D7D077F6F0A00E0002A007E
:10003A000000F894EE27ECBBF1E0FBBFEBBFE5BF95
:10004A008DE0A2E0BB27ED938A95E9F780E092E084
:10005A00A0E6ED930197E9F7E4E3F0E08591959145
:10006A00009761F0A591B59105901590BF01F00137
:10007A0005900D920197E1F7FB01F0CFEFE5EDBF97
:10008A00E2E0EEBFC0EED0E049C0EEEFD3D0B799C0
:10009A0002C0EAE00895B69902C0E3E00895B5996E
:1000AA0002C0E2E00895B49902C0E1E00895EDEFDC
:1000BA00C1D0B79902C0EBE00895B69902C0E6E054
:1000CA000895B59902C0E5E00895B49902C0E4E044
:1000DA000895EBEFAFD0B79902C0ECE00895B69956
:1000EA0002C0E9E00895B59902C0E8E00895B4991C
:1000FA0002C0E7E00895E7EF9DD0B79902C0EDE0AE
:10010A000895B69902C0EFE00895B59902C0E0E0FB
:10011A000895B49902C0EEE0089508952697E1E0A3
:10012A00E883E0E0E983E2BBEFEFE1BBEFE0E8BBA5
:10013A00E0EFE7BBE0E0EBBBEFEFEABBE0E0E5BBFB
:10014A00E4BBEFEFEABBE0E0EBBBEFEFE7BBE0E0DD
:10015A00E8BBE4BBE5BBEFEFE1BBE0E0E2BBE3BF3A
:10016A00E2BFECBFEFBDEEBDEDBDECBDE7BDE6BD48
:10017A00EBBDEABDE9BDE8BDE2BDE5BDE4BDE3BD59
:10018A00E9BFE5BFE4BFEAB9E0E8E8B9E0E0E0BF0B
:10019A00E6B9EDB9E6BFA881B981119739F475DFDF
:1001AA004E2F5527E2E0F0E0E883F983A881B98170
:1001BA00129721F46ADFF0E0EC83FD834333E0E039
:1001CA005E07B4F000E010E020E030E000E010E06C
:1001DA000A30E0E01E0764F520E030E02A30E0E073
:1001EA003E071CF52BD02FD0ECF433D059F73CD076
:1001FA0009E010E01123A2F029E030E00024021601
:10020A0003065CF41BD01FD02CF423D0D9F62CD0D3
:10021A0041D0F9CF21503040F1CF01501040EACF00
:10022A0039D0E1CF2F5F3F4FD9CF0F5F1F4FD0CFCC
:10023A00B2CFFFCFE8BBA4E6B0E038C0E1E0F0E01F
:10024A00EA83FB830895AA81BB81A436E0E0BE0756
:10025A000895D801E9E0F0E023D00E2ED901E9E0B3
:10026A00F0E01ED0E0210895AF9AAE98A0EEB0E07B
:10027A00A20FB31FEC91E2BBA1E0B0E017D0AF9898
:10028A00AE9AA0EEB0E0A00FB11FEC91E2BBA1E0E4
:10029A00B0E00CC0EA81FB813196EA83FB830895C2
:1002AA00EA17FB07E1E009F0EE270895109639F006
:1002BA00A89580EA9FE00197F1F71197C9F7089589
:00000001FF
