:0400000035C0FECF3A
:10000400FDCFFCCFFBCFFACFF9CFF8CFF7CFF6CFA8
:10001400F5CFF4CFF3CFF2CFF1CFF0CFEFCFEECFD8
:10002400EDCFECCFEBCF1027E80364000A0001000A
:10003400001000011000010053696C61686B616E6F
:100044002074656B616E20746F6D626F6C00546F09
:100054006D626F6C2030002020202020000080C0C2
:100064000200E00062000000F894EE27ECBBF1E02F
:10007400FBBFEBBFE5BF8DE0A2E0BB27ED938A9504
:10008400E9F780E092E0A0E6ED930197E9F7E4E672
:10009400F0E085919591009761F0A591B591059057
:1000A4001590BF01F00105900D920197E1F7FB0156
:1000B400F0CFEFE5EDBFE2E0EEBFC0EED0E000C070
:1000C400E0E0EABBEBBBE7BBE8BBEFEFE4BBE0E09F
:1000D400E5BBE1BBE2BBE3BFE2BFECBFEFBDEEBDFE
:1000E400EDBDECBDE7BDE6BDEBBDEABDE9BDE8BDD8
:1000F400E2BDE5BDE4BDE3BDE9BFE5BFE4BFEAB9E8
:10010400E0E8E8B9E0E0E0BFE6B9EDB9E6BFA0E1B8
:1001140072D0B09907C09AD0A0E032D0ACE3B0E07E
:1001240098D00FC0B09B07C091D0A1E029D0A2E520
:10013400B0E08FD006C08AD0A1E022D0ABE5B0E019
:100144004BD0E7CFFFCF1A931A2FE5B3EF70AE2F42
:10015400E12FE07FEA2BE5BB80D0AA9A7ED0AA9853
:100164007CD072C0AA93A881EEDFE881E295E8838F
:10017400A881E9DF88EC90E00197F1F721960895D2
:100184007DD01A2F0A81E12FF0E0E052FF4FE08189
:10019400E00FAE2FE7DF502E412E75D02396089541
:1001A400A2E05FD0ACE0DEDFA1E05BD0E0E04E2E69
:1001B4005E2E08951A931A2F1A3011F0571430F046
:1001C40045D04394A42DDCDF1A30F1F15394A89A5E
:1001D400A12FC8DFA89838C04FD09D01F9012F5F27
:1001E4003F4FE4911E2FE03019F0A12FE3DFF6CF4B
:1001F40048D0249608951A931A2FE4B3E06FE4BB11
:10020400A29AA09AA19AAA98A898A998712EE12FC7
:10021400E058E093E200E12FE054E093E300A4E12E
:10022400B0E034D022D021D020D0A0E28CDF80E90D
:1002340091E00197F1F7A8E295DFA4E093DFA5E848
:1002440091DFA6E08FDFACDF19910895E0E0EA9337
:100254000895C2DFAAE0B0E019C08BE18A95F1F7F6
:10026400089580DFA3E0B0E011C0A0E36CDF80E973
:1002740091E00197F1F708953A932A931A930A9318
:1002840008953B812A81198108810895109639F0D7
:10029400A89580EA9FE00197F1F71197C9F70895AF
:00000001FF
