:0600000021C0FECFFDCF80
:10000600FCCFFBCFFACFF9CFF8CFF7CFF6CFF5CFAE
:10001600F4CFF3CFF2CFF1CFF0CFEFCFEECFEDCFDE
:10002600ECCFEBCF0909C0F9A4B0999282F8809081
:10003600020004002A000A00E0002C000000F894E8
:10004600EE27ECBBF1E0FBBFEBBFE5BF8DE0A2E026
:10005600BB27ED938A95E9F780E092E0A0E6ED9361
:100066000197E9F7E6E3F0E085919591009761F055
:10007600A591B59105901590BF01F00105900D92DF
:100086000197E1F7FB01F0CFEFE5EDBFE2E0EEBF50
:10009600C0EED0E016C067D010E01A3078F400E069
:1000A600023350F4E1E0EBBBE52D53D0E2E0EBBBCD
:1000B600E42D4FD00F5FF4CF1F5FEFCF0991199159
:1000C6000895EFEFE7BBEABBE0ECE8BBEFEFEBBB75
:1000D600A2E0B0E04BD0EFEFEABBE0E0EBBBEFEF26
:1000E600E7BBE0E0E8BBE4BBE5BBE1BBE2BBE3BFEB
:1000F600E2BFECBFEFBDEEBDEDBDECBDE7BDE6BDBD
:10010600EBBDEABDE9BDE8BDE2BDE5BDE4BDE3BDCD
:10011600E9BFE5BFE4BFEAB9E0E8E8B9E0E0E0BF7F
:10012600E6B9EDB9E6BFB7DF442069F4552021F4FE
:10013600E9E04E2E5E2E06C0E1E05E1618F0E9E01C
:100146004E2E5A9404C0E1E04E1608F04A94EBCFC6
:10015600FFCFF0E0E052FF4FE081E8BB80E293E0A2
:100166000197F1F708951A930A930895109639F0B6
:10017600A89580EA9FE00197F1F71197C9F70895CE
:00000001FF
