:0A00000014C0FECFFDCFFCCFFBCFF4
:10000A00FACFF9CFF8CFF7CFF6CFF5CFF4CFF3CFBA
:10001A00F2CFF1CFF0CFEFCFEECFEDCFECCFEBCFEA
:10002A00F894EE27ECBBF1E0FBBFEBBFE5BF8DE038
:10003A00A2E0BB27ED938A95E9F780E092E0A0E67B
:10004A00ED930197E9F7EFE5EDBFE2E0EEBFC0EE11
:10005A00D0E02BC0C4985DD011F4E9EF07C062D09C
:10006A0021F064D011F066D011F4EFEF4E2EC49A4D
:10007A00C5984FD041F056D011F4E2E905C056D0E8
:10008A0011F058D011F4EFEF4E2EC59AC69841D010
:10009A0041F048D031F04AD011F4E0E903C04AD027
:1000AA0011F4EFEF4E2EC69A0895E0E0EABBEBBBDF
:1000BA00EFEFE7BBE0E0E8BBEFEFE4BBE0E0E5BB76
:1000CA00EFEFE1BBE0E0E2BBE3BFE2BFECBFEFBDB5
:1000DA00EEBDEDBDECBDE7BDE6BDEBBDEABDE9BDDC
:1000EA00E8BDE2BDE5BDE4BDE3BDE9BFE5BFE4BFF0
:1000FA00EAB9E0E8E8B9E0E0E0BFE6B9EDB9E6BFA1
:10010A00A9DFAE9AAF9842BAA5E0B0E017D0F8CF0F
:10011A00FFCFE6B3E095EF705E2EF0E0E130A0E0AD
:10012A00FA070895E230A0E0FA070895E430A0E063
:10013A00FA070895E830A0E0FA070895109639F012
:10014A00A89580EA9FE00197F1F71197C9F70895FA
:00000001FF
