:0800000023C0FECFFDCFFCCFB1
:10000800FBCFFACFF9CFF8CFF7CFF6CFF5CFF4CFB4
:10001800F3CFF2CFF1CFF0CFEFCFEECFEDCFECCFE4
:10002800EBCFFEFDFBF7EFDFBF7FF7BFDFEFF7FB9F
:10003800FDFE0800E0002A000800E8003200000089
:10004800F894EE27ECBBF1E0FBBFEBBFE5BF8DE01A
:10005800A2E0BB27ED938A95E9F780E092E0A0E65D
:10006800ED930197E9F7EAE3F0E085919591009720
:1000780061F0A591B59105901590BF01F00105902B
:100088000D920197E1F7FB01F0CFEFE5EDBFE2E05C
:10009800EEBFC0EED0E024C04424E8E04E1668F479
:1000A8005524E8E05E1638F4E52DF0E0E052FF4F05
:1000B80043D05394F6CF4394F0CF08954424E8E016
:1000C8004E1668F45524E8E05E1638F4E52DF0E0A5
:1000D800E851FF4F31D05394F6CF4394F0CF0895B1
:1000E800EFEFEABBE0E0EBBBE7BBE8BBE4BBE5BB9B
:1000F800E1BBE2BBE3BFE2BFECBFEFBDEEBDEDBDD0
:10010800ECBDE7BDE6BDEBBDEABDE9BDE8BDE2BDBE
:10011800E5BDE4BDE3BDE9BFE5BFE4BFEAB9E0E89A
:10012800E8B9E0E0E0BFE6B9EDB9E6BFB5DF09D070
:10013800C5DF07D0FBCFFFCFE081EBBBA4EFB1E079
:1001480005C0E0EFEBBBA8EEB3E000C0109639F0B5
:10015800A89580EA9FE00197F1F71197C9F70895EC
:00000001FF
