:0C0000001DC0FECFFDCFFCCFFBCFFACF20
:10000C00F9CFF8CFF7CFF6CFF5CFF4CFF3CFF2CFC0
:10001C00F1CFF0CFEFCFEECFEDCFECCFEBCFC0F9F0
:10002C00A4B0999282F880900A00E0002A000000A7
:10003C00F894EE27ECBBF1E0FBBFEBBFE5BF8DE026
:10004C00A2E0BB27ED938A95E9F780E092E0A0E669
:10005C00ED930197E9F7E4E3F0E085919591009732
:10006C0061F0A591B59105901590BF01F001059037
:10007C000D920197E1F7FB01F0CFEFE5EDBFE2E068
:10008C00EEBFC0EED0E000C0EFEFEABBE0E0EBBBB0
:10009C00EFEFE7BBE0E0E8BBE4BBE5BBE1BBE2BBF9
:1000AC00E3BFE2BFECBFEFBDEEBDEDBDECBDE7BD08
:1000BC00E6BDEBBDEABDE9BDE8BDE2BDE5BDE4BD15
:1000CC00E3BDE9BFE5BFE4BFEAB9E0E8E8B9E0E0C9
:1000DC00E0BFE6B9EDB9E6BF442455246624772485
:1000EC0044245524E2E0F0E04E165F0644F5662405
:1000FC007724EAE0F0E06E167F06ECF4882499246D
:10010C00E4E6F0E08E169F0694F4D89AD998A0EE07
:10011C00B0E0A40DB51D15D0D898D99AA0EEB0E0DA
:10012C00A60DB71D0ED0F40131964F01E9CFF301A6
:10013C0031963F01DECFF20131962F01D3CFCCCFD8
:10014C00FFCFEC91E8BBA5E0B0E000C0109639F011
:10015C00A89580EA9FE00197F1F71197C9F70895E8
:00000001FF
