:060000002EC0FECFFDCF73
:10000600FCCFFBCFFACFF9CFF8CFF7CFF6CFF5CFAE
:10001600F4CFF3CFF2CFF1CFF0CFEFCFEECFEDCFDE
:10002600ECCFEBCF1027E80364000A0001000010B4
:100036000001100001005072616B74696B756D00F0
:100046004D696B726F70726F7365736F720080C0EB
:100056000200E00054000000F894EE27ECBBF1E04B
:10006600FBBFEBBFE5BF8DE0A2E0BB27ED938A9512
:10007600E9F780E092E0A0E6ED930197E9F7E6E57F
:10008600F0E085919591009761F0A591B591059065
:100096001590BF01F00105900D920197E1F7FB0164
:1000A600F0CFEFE5EDBFE2E0EEBFC0EED0E000C07E
:1000B600E0E0EABBEBBBE7BBE8BBEFEFE4BBE0E0AD
:1000C600E5BBE1BBE2BBE3BFE2BFECBFEFBDEEBD0C
:1000D600EDBDECBDE7BDE6BDEBBDEABDE9BDE8BDE6
:1000E600E2BDE5BDE4BDE3BDE9BFE5BFE4BFEAB9F6
:1000F600E0E8E8B9E0E0E0BFE6B9EDB9E6BFA0E1C7
:1001060069D0E0E0EA93A0E029D0ACE3B0E053D0B8
:10011600E3E0EA93A2E022D0A6E4B0E04CD0F1CF2F
:10012600FFCF1A931A2FE5B3EF70AE2FE12FE07FC2
:10013600EA2BE5BB7AD0AA9A78D0AA9876D073C073
:10014600AA93A881EEDFE881E295E883A881E9DF3A
:1001560088EC90E00197F1F72196089577D01A2F51
:100166000A81E12FF0E0E052FF4FE081E00FAE2F71
:10017600E7DF502E412E6FD023960895A2E059D086
:10018600ACE0DEDFA1E055D0E0E04E2E5E2E089515
:100196001A931A2F1A3011F0571438F0E0E0EA9348
:1001A6004394A42DDBDF1A30F1F15394A89AA12FC2
:1001B600C7DFA89838C048D09D01F9012F5F3F4F8F
:1001C600E4911E2FE03019F0A12FE2DFF6CF41D0E7
:1001D600249608951A931A2FE4B3E06FE4BBA29A0B
:1001E600A09AA19AAA98A898A998712EE12FE058EA
:1001F600E093E200E12FE054E093E300A4E1B0E0F5
:100206002DD01BD01AD019D0A0E28BDF80E991E067
:100216000197F1F7A8E294DFA4E092DFA5E890DF6A
:10022600A6E08EDFABDF199108958BE18A95F1F791
:10023600089586DFA3E0B0E011C0A0E372DF80E995
:1002460091E00197F1F708953A932A931A930A9346
:1002560008953B812A81198108810895109639F005
:10026600A89580EA9FE00197F1F71197C9F70895DD
:00000001FF
